:020000040800F2
:10000000E8040020E10100088715000895130008A6
:10001000851500086907000889190008000000001C
:100020000000000000000000000000008B15000828
:100030006B07000800000000891500088D150008F6
:10004000FB010008FB010008FB010008FB010008A0
:10005000FB010008FB010008FB010008FB01000890
:10006000FB010008FB010008FB010008FB01000880
:10007000FB010008FB010008FB010008FB01000870
:10008000FB010008FB010008FB0100080000000064
:10009000000000000000000000000000FB0100085C
:1000A000FB010008FB010008FB010008FB01000840
:1000B000000000000000000000000000FB0100083C
:1000C000FB010008FB010008FB010008FB01000820
:1000D000FB010008FB010008FB0100080000000014
:1000E000FB010008FB010008000000000000000008
:1000F000000000000000000000000000FB010008FC
:100100000000000000000000FB01000800000000EB
:100110000000000000000000FB01000800000000DB
:10012000FB010008FB010008FB010008FB010008BF
:10013000FB010008000000000000000000000000BB
:1001400000000000000000000000000000000000AF
:10015000FB010008FB010008FB010008FB0100088F
:10016000000000000000000000000000000000008F
:10017000000000000000000000000000000000007F
:10018000FB010008FB010008000000000000000067
:1001900000000000FB01000800000000000000005B
:1001A000000000000000000000000000000000004F
:1001B000000000000000000000000000FB0100083B
:1001C000FB010008FB010008DFF810D000F0BAFACC
:1001D00000480047551B0008AFF30080E8040020EA
:1001E0000648804706480047FEE7FEE7FEE7FEE7D1
:1001F000FEE7FEE7FEE7FEE7FEE7FEE7151600086E
:10020000C90100082DE9F05F0546002092469B4693
:1002100088460646814640241BE02846414647461C
:10022000224600F00FFA53465A46C01A914110D3A5
:1002300011461846224600F0F6F92D1A67EB010820
:100240004F4622460120002100F0EDF917EB00098E
:100250004E41201EA4F10104DFDC484631462A4607
:100260004346BDE8F09FD2B201E000F8012B491EE1
:10027000FBD270470022F6E710B513460A46044643
:100280001946FFF7F0FF204610BD2DE9FE4F8046CE
:1002900081EA0300C00F0C46009021F0004123F0DA
:1002A0000045B8EB0200A94105D2404621469046E0
:1002B0001C460B46024623F00040104347D0270D52
:1002C000C7F30A00C3F30A510290401A0190402874
:1002D0006BDAC3F3130040F4801B0098924620B100
:1002E0000023D2EB030A63EB0B0B01985946C0F1D4
:1002F0004002504600F097F906460D4650465946D2
:10030000019A00F0AFF910EB08006141002487EA80
:10031000115284EAE7731A4340D0009A62B3019AFB
:10032000012A4FEA075215DC001B61EB02014FF076
:10033000004202EA0752CDE90042001C41F580115B
:1003400032462B4600F0AFF903B0BDE8F08F4046CF
:100350002146F9E7001B61EB0201001C41F5801307
:1003600000185B412018A2F5001747EB030140EA93
:10037000D570B6196D4111E06D084FEA360645EAB1
:10038000C0754FEA0752001B61EB0201001C41F5EA
:10039000801149084FEA30000019514132462B467E
:1003A00003B0BDE8F04F00F06FB9009801224000A3
:1003B0000023D0EB020263EBE073009821464FEA82
:1003C000E074B8EB000061EB0401E9E783F000435F
:1003D0005BE781F0004158E72DE9FE4F81EA030415
:1003E00004F0004421F0004100944FF0000B23F092
:1003F000004350EA01045ED052EA03045BD0C3F329
:100400000A54C1F30A552C44A4F2F3340194A0FB1E
:100410000254C1F3130141F48011C3F3130343F4F5
:10042000801301FB024400FB034E840A970A44EA4E
:10043000815447EA8357A4FB076802958D0A05FBA0
:1004400007854FEA932C04FB0C542705029D4FEAC5
:10045000065847EA1637B5EB08056EEB070C870E12
:10046000920E47EA811742EA8312A7FB0201B6EB1C
:100470000B0164EB00042B0D43EA0C335E1844EBD4
:100480001C50DA465146E7FB0201C5F313044FEA5C
:100490000B3343EA14534FEA0432019C43EA060348
:1004A000A4F10C040294009CCDE900B400F0FBF828
:1004B00003B0BDE8F08F00200146F9E72DE9F04DCB
:1004C00081EA030404F0004B21F0004514464FF08C
:1004D000000A23F0004150EA050220D054EA01024C
:1004E0001DD0C5F30A570246C5F31303C1F3130029
:1004F000C1F30A5640F4801543F48013A7EB0608B5
:10050000101BD64608F2FD3873EB050002D308F144
:10051000010801E092185B41B8F1000F03DA0020F6
:100520000146BDE8F08D00204FF480110646844658
:100530000EE0171B73EB050705D3121B63EB0503D6
:1005400006434CEA010C49084FEA300092185B411F
:1005500050EA0107EDD152EA030012D082EA04000A
:1005600083EA0501084305D0101BAB4106D20122E6
:10057000002306E000224FF0004302E06FF001028A
:1005800053101AEB06004CEB085110EB0A0041EB3C
:100590000B01BDE8F04D00F077B80EB5C10F80EA51
:1005A000E0700844CA07002140F233438DE80E0092
:1005B0000A460B4600F077F803B000BD70B5C1F3F2
:1005C0000A5201F000450024C1F3130140F2FF3349
:1005D00041F480119A4201DA002070BD40F23343A9
:1005E0009A42A2F2334203DC524200F02BF800E0C0
:1005F00090402C43F1D0404270BD30B50B460146CF
:1006000000202022012409E021FA02F59D4205D3B1
:1006100003FA02F5491B04FA02F52844151EA2F15B
:100620000102F1DC30BD202A04DB203A00FA02F19D
:10063000002070479140C2F1200320FA03F31943D0
:1006400090407047202A04DB203A21FA02F0002172
:10065000704721FA02F3D040C2F1200291400843D2
:1006600019467047202A06DBCB17203A41FA02F0E0
:1006700043EAE07306E041FA02F3D040C2F12002FF
:10068000914008431946704710B5141E73F10004D9
:1006900008DA401C41F1000192185B411A4301D174
:1006A00020F0010010BD2DE9F04D92469B4611B19E
:1006B000B1FA81F202E0B0FA80F220329046FFF700
:1006C000B2FF04460F4640EA0A0041EA0B015346D6
:1006D0005A46084313D0114653EA010019D0C8F115
:1006E00040025046FFF7AEFF05460E4650465946BB
:1006F0004246FFF798FF084305D0012004E020465A
:100700003946BDE8F08D0020054346EAE0762C43EB
:1007100037430A986305E40AA0EB08000022FD0AAB
:1007200044EA47540A3002D500200146E9E70105B2
:1007300010196941DDE9084500196941BDE8F04D2E
:10074000A2E70000064C074D06E0E06840F0010318
:1007500094E8070098471034AC42F6D3FFF738FD11
:10076000E41D0008041E0008FEE7704770B504464B
:1007700000F0D0F80546601C02D00448007804441C
:1007800000F0C8F8401BA042FAD370BD140000204E
:100790002DE9F84F00224FF0010803254FF00F0E0E
:1007A0000B6808FA02F42340A3426ED14E68012E72
:1007B00005D0022E03D0112E01D0122E12D1866840
:1007C0004FEA420C05FA0CF7BE43CF6807FA0CF764
:1007D000374387604668A6430C79C4F300149440FD
:1007E00034434460C668570005FA07FC8C6826EA63
:1007F0000C06BC403443C4604C68022C01D0122C5F
:1008000013D1D40800EB8404A346D4F820905407F5
:100810004FEAD46A0EFA0AF629EA06090E6906FAC0
:100820000AF646EA0906CBF8206004680E7924EA45
:100830000C0406F00306BE40264306604C68E40044
:100840004CD5294C266846F480462660246822F060
:10085000030604F480440094244C3444A446D4F8A1
:1008600008489607370F0EFA07F6B443204EB042F9
:1008700001D100260BE01F4EB04201D1012606E057
:100880001D4EB04202D1022601E027E00726BE40FD
:100890002643CCF80868194E34684F689C43FF0320
:1008A00000D51C433460154E361D34684F689C4398
:1008B000BF0300D51C433460104E083634684F68BF
:1008C0009C43FF0200D51C4334600C4E0C36346848
:1008D0004F689C43BF0200D51C433460521C102A51
:1008E000FFF45EAFBDE8F88F4438024000300140AD
:1008F000000002400004024000080240003C0140A9
:100900000069084000D0012070470AB1816170473A
:100910000904FBE7014880687047000014000020CC
:1009200002488168027811448160704714000020F9
:100930000B4810B5016841F400710160016841F491
:1009400080610160016841F480710160032000F062
:1009500063F8002000F006F800F024F8002010BD35
:10096000003C024070B50D4D04464FF47A71287872
:10097000B1FBF0F00A490968B1FBF0F000F0DAFAD7
:1009800048B9102C07D200222146501E00F024F84E
:1009900000206C6070BD012070BD000014000020BC
:1009A000200000200B4882B0016841F480410160C2
:1009B000006800F4804000900648001F016841F084
:1009C00080510160006800F080500090072002B064
:1009D00000F022B844380240F0B40E4B1B680C46BD
:1009E000C3F30223C3F10705042D00D90425191D03
:1009F000072901D2002300E0DB1E012606FA05F1DB
:100A0000491E214099409E40761E16403143F0BC5D
:100A100000F0CCBF0CED00E0064900F007020868CA
:100A20004FF6FF03184040EA0220034A10430860D3
:100A3000704700000CED00E00000FA052DE9F047DA
:100A40000E46050065D0DFF81481D8F80000F7B233
:100A500000F00F00B04207D288F80070D8F800000C
:100A600000F00F00B04254D128683D4C810712D5E8
:100A7000400703D5206840F4E05020602878000744
:100A800003D5206840F4604020602068A96820F009
:100A9000F000084320602878C0072DD030496868EE
:100AA0000839012812D0022813D0032811D0096870
:100AB000890700292DDA216821F003010143216013
:100AC000FFF728FF814641F2883A0EE00968890362
:100AD000EFE709688901ECE7FFF71CFFA0EB0901CC
:100AE000514502D90320BDE8F0872068696800F00D
:100AF0000C00B0EB810FEFD1D8F80010404601F0A8
:100B00000F01B14207D90770006800F00F00B04232
:100B100001D00120E7E72878400705D52068E9687B
:100B200020F4E050084320602878000706D52068AC
:100B3000296920F4604040EAC100206000F038F8E4
:100B40002168084AC1F30311515CC8400649086096
:100B500006480068FFF706FF0020C4E7003C02409B
:100B600008380240CC1D000820000020180000209A
:100B70000448054900680968044AC1F38221515CB0
:100B8000C84070472000002008380240DC1D0008E3
:100B90000448054900680968044AC1F34231515CC0
:100BA000C84070472000002008380240DC1D0008C3
:100BB000154810B5006810F00C02144813D041100D
:100BC000042A0FD0082A0ED10F4C241F2268236854
:100BD00002F03F025B0207D52068C0F38810A0FB3B
:100BE000010106E0084610BD2168C1F38811A1FB90
:100BF00000010023FFF706FB2168C1F30141491CF6
:100C00004900B0FBF1F010BD083802400024F400A8
:100C10002DE9F84F05460078DFF800B3C04CC00757
:100C20004AD0DBF800105846C1F38101012908D0F1
:100C30000068C0F3810002280AD1201D006840022C
:100C400006D52068800337D56868002872D033E065
:100C50006868B0F5803F10D0B0F5A02F206810D0A4
:100C600020F480302060206820F4802020606868B4
:100C7000A8B1FFF74FFE06460DE0206840F4803033
:100C8000F4E740F480202060F7E700BFFFF742FE62
:100C9000801B64286FD820688003F7D50CE0FFF72D
:100CA00039FE064605E000BFFFF734FE801B6428CE
:100CB000F0D820688003F7D42878DFF868828007AE
:100CC0004FF0000940D5DBF80010584611F00C0F2A
:100CD00009D00068C0F3810002280BD18F48001FA3
:100CE0000068400206D42068800715D5E86801280E
:100CF00020D111E0E868B8B10120C8F80000FFF782
:100D000009FE064605E000BFFFF704FE801B02282F
:100D1000C0D820688007F7D52068296920F0F8003E
:100D200040EAC10020600FE0C8F80090FFF7F2FD34
:100D3000064606E0EFE000BFFFF7ECFD801B02284F
:100D400019D820688007F7D42878000722D5734E79
:100D5000754869696C3679B101210160FFF7DAFDE8
:100D6000074604E0FFF7D6FDC01B022803D8306811
:100D70008007F7D50EE089E0C0F80090FFF7CAFDC4
:100D8000074604E0FFF7C6FDC01B02287ED8306886
:100D90008007F7D42878400768D5DFF880A10027BE
:100DA0000AF1380ADAF80000C0000BD4DAF80010B3
:100DB00041F08051CAF80010DAF80000012700F075
:100DC00080500090594E3068C00510D4306840F40F
:100DD00080703060FFF79EFD009005E0FFF79AFD00
:100DE0000099401A022851D83068C005F6D54B4EFC
:100DF000A868683601280FD00528306810D020F088
:100E000001003060306820F004003060A868B8B19C
:100E1000FFF780FD00900FE0306840F00100F4E73C
:100E200040F004003060F7E7FFF774FD0099411AC5
:100E300041F28830814266D830688007F4D50EE0F0
:100E4000FFF768FD009007E0FFF764FD0099411A85
:100E500041F28830814256D830688007F4D42FB1EF
:100E6000DAF8001021F08051CAF80010A869D0B358
:100E7000DBF80010C1F3810102294CD0022848465A
:100E800007D0C8F86000FFF745FD00E03BE00546ED
:100E90003CE04746C8F86000FFF73CFD064604E02A
:100EA000FFF738FD801B02282DD820688001F7D479
:100EB000F5E907010843E9681D4A490802EB0141C9
:100EC000AA6841EA82110843297C40EA0160297D31
:100ED00040EA01711148001F016001203866FFF7E8
:100EE00019FD054605E014E0FFF714FD401B02283C
:100EF00009D820688001F7D50BE000BFFFF70AFD95
:100F0000401B022802D90320BDE8F88F2068800129
:100F1000F4D40020F8E70120F6E70000083802408A
:100F20000038024000004742800E474200700040F7
:100F30000000FFFF10B5401EB0F1807F01D30120FB
:100F400010BD4FF0E02460610F21601700F02EFD0E
:100F50000020A06107202061002010BD70B590F82E
:100F60003C20012A23D0012480F83C40022280F852
:100F70003D2003685A689D6822F070060A68324373
:100F80005A600C4B02689A4205D00B4B9A4202D031
:100F90000A4B9A4204D1496825F0800319439160B5
:100FA00080F83D40002180F83C10084670BD0220CA
:100FB00070BD000000000140000C004000400140F6
:100FC00010B5040003D094F83D0010B107E00120F3
:100FD00010BD002084F83C00204600F00DF80220EF
:100FE00084F83D00211D206800F022FB012084F8D8
:100FF0003D00002010BD000008B500680C49884283
:1010000008D10C48016841F001010160006800F05E
:1010100001000BE00849884209D10648001F016819
:1010200041F008010160006800F00800009008BD70
:101030000000014044380240000C0040022180F8CA
:101040003D1001688A6802F00702062A03D00A6888
:1010500042F001020A60012180F83D100020704733
:1010600070B5044690F83C00012817D0012584F89B
:101070003C50022084F83D002068826822F077020C
:1010800022F47F4282600868502830D00DDC20288E
:101090004DD005DC98B310283BD148E0022070BD4C
:1010A000302844D0402834D139E0602828D0702836
:1010B00006D0B0F5805F2CD0B0F5005F29D10AE0F2
:1010C000CB68D1E90121206800F0F1FA206881683D
:1010D00041F0770109E0CB68D1E90121206800F0F7
:1010E000E6FA2068816841F48041816011E0CA68B5
:1010F0004968206800F090FB5021206807E016E066
:10110000CA684968206800F098FB6021206800F0F8
:10111000D8FA84F83D50002084F83C0070BDCA68BD
:101120004968206800F078FB40212068EFE72268DA
:1011300001461046EBE7000010B586B004461421C6
:101140006846FFF797F80D492068884214D10C488B
:101150000021026842F001020260006800F0010014
:101160000590012000900220CDE90101CDE9031096
:1011700069460448FFF70CFB06B010BD000C0040A8
:10118000303802400000024070B5044690F83C0040
:101190000D4601280DD0012684F83C60022084F819
:1011A0003D0042B1042A18D0082A2AD00C2A4DD179
:1011B00039E0022070BD206800F08CFA2068816957
:1011C00041F0080181612068816921F00401816199
:1011D000206881692A69114311E0206800F0A2FAB1
:1011E0002068816941F4006181612068816921F48E
:1011F00080618161206881692A6941EA02218161F7
:1012000024E0206800F0BAFA2068C16941F00801C2
:10121000C1612068C16921F00401C1612068C16910
:101220002A69114311E0206800F0D4FA2068C169EE
:1012300041F40061C1612068C16921F48061C1612C
:101240002068C1692A6941EA0221C16184F83D60D0
:10125000002084F83C0070BD10B5040003D094F861
:101260003D0010B107E0012010BD002084F83C00D3
:10127000204600F00CF8022084F83D00211D206873
:1012800000F0D6F9012084F83D00002010BD704721
:1012900010B504460068012200F0FCF909492068F5
:1012A000884203D1416C41F4004141642068816867
:1012B00001F00701062903D0016841F00101016036
:1012C000002010BD0000014070B5040004D094F867
:1012D0003900002510B106E0012070BD84F83850B7
:1012E000204600F023F8242084F839002068C168E3
:1012F00021F40051C160204600F0B2FA2068016973
:1013000021F4904101612068416921F02A01416185
:101310002068C16841F40051C160E563202084F871
:10132000390084F83A00002070BD000010B586B086
:10133000044614216846FEF79DFF13492068884241
:1013400020D112480021026842F400320260006895
:1013500000F4003005900D481038026842F0010298
:101360000260006800F0010005900C20009002204F
:10137000CDE9010103200390072004906946044849
:10138000FFF706FA06B010BD0044004040380240A6
:1013900000000240FEE7000007490968C9070AD0BB
:1013A000054980390968C90705D04FF060410A68CE
:1013B000002AFCD008707047800E00E02DE9F04351
:1013C00087B014216846FEF755FF354800240168B0
:1013D00041F004010160016801F004010591016818
:1013E00041F080010160016801F080010591016810
:1013F00041F001010160016801F0010105910168FE
:1014000041F0020101600068DFF8989000F00200EE
:101410004FF4F0750590002229464846FFF775FA0B
:10142000214F4FF4CE66002231463846FFF76DFA61
:10143000DFF87880002280214046FFF766FA4FF4FB
:10144000005000901A48CDE9010469464046FFF774
:101450009FF900950125CDE901546946484603945A
:10146000FFF796F90096CDE9015469463846039492
:10147000FFF78EF980200090CDE90154694640467F
:101480000394FFF785F94FF4C060CDE90004694685
:1014900048460294FFF77CF907B0BDE8F0830000EE
:1014A00030380240000002400004024000080240C0
:1014B0000000211010B586B0002412480094019459
:1014C0000294039404940E49059401606321C0E9D9
:1014D00001144FF6FE71C0E9031444618461FFF703
:1014E0006FFD4FF48050009069460648FFF7B8FD45
:1014F000049404A903480594FFF730FD06B010BD1D
:10150000000001402800002010B58EB00024079490
:10151000089409940A940B941C2168460C94FEF7D5
:10152000A9FE174815490160A021C0E901144FF434
:10153000FA61C0E903148461FFF742FD4FF4805063
:10154000079007A90E48FFF78BFD0D48FFF784FEB3
:101550000B940BA90A480C94FFF700FD6020CDE91D
:10156000000402940022694605480494FFF70CFE2B
:101570000348FFF7E1FD0EB010BD0000000C004075
:1015800068000020FEE7704770477047FFF7C8B952
:1015900030B593B034216846FEF76CFE14210DA8D7
:1015A000FEF768FE19480025016841F0805101608E
:1015B000006800F0805012901548016841F44041E5
:1015C00001600068022400F4404012900120009065
:1015D0004FF4A02001906005CDE9064008AA042040
:1015E000402182E81300CDE90B046846FFF710FBA9
:1015F0000DA90F2081E831004FF4C050CDE910054E
:1016000001210DA8FFF71AFA13B030BD403802408F
:10161000007000400548016841F470010160034911
:101620004FF00060803908607047000088ED00E0EE
:1016300030B50268134B144C984201D0A04203D13C
:1016400022F070054A682A43984207D0A04205D08C
:101650000E4CA04202D00E4CA04203D122F44074A2
:10166000CA6822434C6922F08002224302608A68E1
:10167000C2620A688262984201D10969016301214C
:10168000416130BD00000140000C004000400140BD
:101690000048014010B501F01F030121046A994080
:1016A0008C430462016A9A401143016210BD10B577
:1016B000846842EA032224F47F440A43224382607E
:1016C00010BD826822F070020A4342F00701816077
:1016D0007047000030B5026A22F001020262026A1D
:1016E0004368846924F073050C682C4322F00205DA
:1016F0008A682A430A4DA8420BD122F00805CA681D
:1017000023F440732A434D6922F004021D438B6980
:101710002B434360846149684163026230BD00002D
:101720000000014030B5026A22F010020262026A33
:10173000436884690D6824F4E64444EA05248D680E
:1017400022F0200242EA05120B4DA8420ED1CD68CC
:1017500022F0800242EA05124D6923F4406343EA15
:1017600085038D6922F0400243EA8503436084616A
:1017700049688163026230BD0000014030B5026AF1
:1017800022F480720262036A4268C46923F400731F
:1017900024F073050C682C438D6843EA05230C4D37
:1017A000A8420ED1CD6823F4006343EA05234D69B6
:1017B00022F4405242EA05128D6923F4806342EA22
:1017C00005124260C4614968C163036230BD000014
:1017D0000000014030B5026A22F480520262046ABD
:1017E0004268C3690D6823F4E64343EA05238D6824
:1017F00024F4005444EA0534064DA84204D14D694E
:1018000022F4804242EA85124260C3614968016461
:10181000046230BD0000014010B5036A046A24F080
:1018200001040462846924F0F00444EA021423F001
:101830000A020A438461026210BD10B5036A23F0F4
:10184000100303628369046A23F4704343EA02329B
:1018500024F0A00343EA01118261016210BD00007F
:101860002DE9F041044600680169E26821F4405125
:10187000114301612169A068E2690843616911436C
:1018800008432168CA6849F20C639A430243CA605C
:1018900020684169A26921F4407111434161E06906
:1018A000192764253226B0F5004F354A354920689E
:1018B0004FF0000806D0884201D0904236D1FFF7A1
:1018C00067F935E0884201D0904202D1FFF760F914
:1018D00001E0FFF74DF961684A18A0FB070148EBEA
:1018E0000803FEF78FFC0146B0FBF5F00201B1FBE7
:1018F000F5F06FF01803584301EB800006EBC000D1
:10190000B0FBF5F000F0F80002EB4002B1FBF5F09F
:10191000584301EB800006EBC000B0FBF5F000F08F
:101920000700216810448860BDE8F081FFF720F9C6
:1019300061688B0F8A00A0FB0701FEF763FC01467C
:10194000B0FBF5F06FF01802504301EB800006EB9E
:101950000010B0FBF5F000F0F002B1FBF5F002EB87
:101960000012B1FBF5F06FF01803584301EB800053
:1019700006EB0010B0FBF5F000F00F00D1E700001F
:101980000014014000100140FEE700000FB4054BB9
:1019900010B503A9044A029800F028F810BC5DF8BD
:1019A00014FB0000411B0008240000200907090E59
:1019B000002804DB00F1E02080F80014704700F0FC
:1019C0000F0000F1E02080F8141D704702E008C805
:1019D000121F08C1002AFAD170477047002001E0A9
:1019E00001C1121F002AFBD1704700002DE9FF4FF3
:1019F00089B09B460446002506E025280BD05A46B0
:101A00000B999047641C6D1C20780028F5D10DB00F
:101A10002846BDE8F08F0027B8460122474900E07C
:101A2000074314F8013F203B02FA03F00842F7D1C4
:101A300020782E2819D114F8010F47F004072A281E
:101A40000ED06FF02F022078A0F1300109290CD8B8
:101A500008EB880102EB410100EB0108641CF2E78E
:101A60000A98641C50F8048B0A9020780028CED085
:101A7000642808D0692806D075281ED05A460B99CC
:101A800090476D1C58E00A994FF00A0901C90A9164
:101A9000002802DA40422D2102E0390504D52B212D
:101AA0008DF82010012103E0F90704D02021F7E789
:101AB0008A4608AE0DE00021FAE70A994FF00A09BC
:101AC00001C90A91F7E74946FEF797FD303106F85C
:101AD000011D0028F7D1ADEB060000F120097807C1
:101AE00001D44FF00108C84502DDA8EB090000E071
:101AF00000208046002706E008A85A46C05D0B99E2
:101B000090476D1C7F1C5745F6DB04E030205A4699
:101B10000B9990476D1CB8F10001A8F10108F5DCA4
:101B200005E016F8010B5A460B9990476D1CB9F168
:101B30000001A9F10109F4DC641C65E70928010032
:101B4000034A914201D1FFF727BC4FF0FF307047A5
:101B500024000020FEF7ECFEFFF71AFDFFF72EFC35
:101B6000FFF7D2FC4C484B49002501604FF4E131AE
:101B7000C0E901150C21C560C0E904518561C5614A
:101B8000FFF7A2FBFFF796FC434800214038FFF720
:101B90007FFB41488038FFF751FA642000F008F9D4
:101BA0003E4C2068E0603EA0FFF7F0FE3E4F4FF451
:101BB000806B4FF400794FF0010A49463846FEF732
:101BC0009FFE804659463846FEF79AFE06466068F4
:101BD00058EA000829D1E068002823DDC4F804A0F1
:101BE000A068002821D131A0FFF7D0FE012249468C
:101BF0003348FEF78AFE33A0FFF7C8FE002000F04E
:101C0000D7F834A0FFF7C2FEE16836A0491EE160B4
:101C1000FFF7BCFEE1682068411A35A02161FFF79B
:101C2000B5FE02E035A0FFF7B1FEA06806431ED165
:101C3000C4F808A06068D0B9012211023846FEF746
:101C400064FE33A0FFF7A2FE002000F0B1F835A03B
:101C5000FFF79CFEE16838A0491CE160FFF796FEA3
:101C6000E1682068411A22A02161FFF78FFE6068B9
:101C70000128A2D1A06801289FD14FF47A70FEF705
:101C800075FD642000F094F82EA0FFF77FFE6560DC
:101C9000A56092E700440040A8000020000000205A
:101CA00068656C6C6F0A000000000240766F697412
:101CB000757265656E7472616E74650A000000006D
:101CC00000040240766F69747572656465746563BB
:101CD00074E90A006F7576657274757265706F725B
:101CE00074650A006C696272652025640A00000050
:101CF0006F6363757065202564200A00736F7272CC
:101D000079206E6F74206573706163650A0000004E
:101D1000766F6974757265736F7274616E74650A3B
:101D2000000000006F7576657274757265706F7271
:101D30007465320A000000006C69627265202564D7
:101D4000200A20006665726D65747572650A000070
:101D50002DE9F04104462DED068B1E4615460F4633
:101D60001046DDF83080FEF718FC41EC180B701BB4
:101D7000FEF713FC41EC190B381BFEF70EFC41EC8F
:101D80001A0BA8EB0400FEF708FC53EC1A2BFEF725
:101D900095FB53EC192BFEF71FFB53EC182BFEF7AA
:101DA00074FABDEC068BBDE8F041FEF707BC0000FD
:101DB00008B5FA2300903222B4210020FFF7C8FFB3
:101DC00001490968486308BD680000200000000060
:101DD00000000000010203040607080900000000DB
:101DE00001020304041E0008000000202800000077
:101DF000CC1900082C1E000828000020C004000098
:101E0000DC190008060000000000000000000000CF
:101E100000000000000000000100000010000000B1
:0C1E2000000000000024F400000000009E
:04000005080001C925
:00000001FF
